:10725C0004030904280350006900780041007200FF
:10726C007400200049006D006100670069006E0029
:10727C006700200049006E0063002E000000000033
:10728C0000000000000000000000000000000000F2
:10729C00000000001E0344006900670069007400D0
:1072AC0061006C005F00430061006D0065007200BE
:1072BC006100000000000000000000000000000061
:1072CC0000000000000000000000000000000000B2
:1072DC00000000001A0341007500640069006F0093
:1072EC005F004400650076006900630065001E03C2
:1072FC004400690067006900740061006C005F0065
:0C730C00430061006D006500720061002C
:0100060022D7
:03000B00020007E9
:0100070032C6
:10798100750E0190D2EB7402F090D2CAE0F508A313
:10799100E0F50990D2AAE0F50AA3E0F50BA3E0F522
:1079A1000CA3E0F50D1277CF90D2CCE070051275E3
:1079B100B780031276DA127FB3908000E04420F0A2
:1079C100908011E054BFF0E5296003127318E52A95
:0B79D1007004E52560F1127E4C80EC94
:107FB300752F01538EF8438E021200061263F5D219
:027FC300AF22EB
:1077CF00AF097E00900A3EEEF0A3EFF0EF5480FF7A
:1077DF00900A3EEEF0A3EFF0703990D0CAE044016A
:1077EF00F090C00FE04401F090C265E04480F0904B
:1077FF00D2E27405F090D2E1E0900C8AF0E0FD1334
:10780F00135401900A89F0ED540125E0900A88F095
:10781F00C201227E00900A3EA3E05480FF900A3EF0
:10782F00EEF0A3EFF0648070077D077F02128200F5
:01783F002226
:1075B700AF0A7E00900A3EEEF0A3EFF0EF5440FFD3
:0A75C700900A3EEEF0A3EFF0705FB3
:1075D100900C8C7480F0A3E4F0900C8CE0FEA3E09E
:1075E100FFF5828E83E493FD748A2FF582748A3EBF
:1075F100F583EDF0900C8DE004F07006900C8CE0BA
:1076010004F0900C8CE0B482D0A3E0B400CB90D213
:10761100BFE09009BCF090D2BEE09009BDF090D2DD
:0E762100C1E09009BEF090D2C0E09009BFF029
:10762F00227E00900A3EA3E05440FF900A3EEEF007
:0F763F00A3EFF0644070077D067F0312820022E4
:1076DA00AF0A7E00900A3EEEF0A3EFF0EF5420FFCF
:1076EA00900A3EEEF0A3EFF07047900A1D743CF04A
:1076FA00A37405F0A37401F0A37476F0E4A3F0A3D5
:10770A00F0A37464F0A37408F0A37413F0A374884C
:10771A00F0A37401F0E4A3F0A3F0A304F0E4A3F04F
:10772A00A3F0A3F0A3F0A304F0E4A3F0A3F0A3F062
:10773A00227E00900A3EA3E05420FF900A3EEEF01B
:0F774A00A3EFF0642070077D057F0312820022F9
:107F78002B282623211F1C1A18161412100E0C0A5F
:057F88000806040200E0
:047D0D00410A4B06D6
:03000300027E2852
:107E2800C0E0C083C082908020E0F528908010E0F8
:107E3800F527E527F45528F5296002C2A8D082D095
:047E480083D0E032D1
:03001300027DACBF
:107DAC00C0E0C083C08290D008E0F52690D007E0F8
:107DBC00F52BE526552BF52A90D005E0F525E52A7F
:0F7DCC007004E5256002C2AAD082D083D0E032D5
:107C0F00908002E04408F090802F7407F09080225B
:107C1F00E054FDF054FBF054F7F090801374FFF034
:107C2F00A3F0908016F0A3F0908000E04410F05481
:107C3F00EFF0908002E04401F0908000E04404F007
:047C4F004420F022BB
:1063F500900A3EE508F05480F0600302656DF543B0
:10640500F544F52CF534F53075310AF532F533F5EB
:106415003E753F0AF540F541C200F52DF529F52AEF
:10642500900A3DF0F5259009DCF0900A4A04F01237
:106435007C0FC288D2A8D2AAC28A9009DD7401F065
:10644500E50B30E7097D077F041282008003126A9D
:106455009590D2CCE07011E50C30E3097D037F0502
:106465001282008003121BFF900A89E0B4012F7588
:106475004A00754B01754E03754F00754C05754DFA
:10648500007550007551019009DD7401F0E50C307F
:10649500E1097D017F051282008003124A8290D2B4
:1064A500D97403F0A37410F0E490D2D7F090D2D64B
:1064B5007480F090D2D87408F07FD07E07127FD018
:1064C50090D2C2E0B4AA1090D2C8E09009DDF09055
:1064D500D2C9E09009DEF0E49009C1F0A3F0A3046D
:1064E500F0A3F0A37440F0A37442F0A3740FF0E49A
:1064F500A3F0A3F0A3F0A3F0A3F0A3F0A3F0A3F0FF
:10650500A3F0A3F0A3F0A3F0A3F0A3F0A3F0A3F0EE
:10651500A3F0A3F0A3F0900A3F04F0A3F0A3F0E4E6
:10652500A3F0A374D0F0A37402F0E4A3F0A3749FC6
:10653500F0A37403F0E4A3F0A3F090D2CCE06010D4
:10654500E49009DFF09009DE04F09009DD7405F0B0
:1065550090D008E04480F090D004E04410F090D052
:10656500CCE04408F0C20122900A3EE05480FFF0DE
:0B657500BF80077D077F01128200221B
:10731800E52930E060908021E0F524908011E0F5C7
:1073280023E523F45524F52230E703127E02E522F3
:1073380030E203127E70E52230E00512474A8008E9
:10734800E52230E303127C97E52230E103127F8DBA
:10735800E52230E403127FC5E52DB4020990800BC5
:10736800E04404F08009E52DB4010790800BE04467
:1073780001F0E4F52DE52930E147908022E0F5247D
:10738800908012E0F523E523F45524F52230E1033B
:10739800127D46E52230E203127BC7E52230E30383
:1073A800127D7CE52230E40A908022E054EFF0124E
:1073B8007F04E52230E50A908022E054DFF0127F56
:0673C8001CE4F529D2A827
:0173CE00229C
:107E4C00E52530E4069009DC7401F0E50C30E0091E
:107E5C00E4FD7F0512820080031279DCE4F52AF53B
:047E6C0025D2AA224F
:10474A003001030248FBD201900A3EE508F0540208
:10475A00F06003024832F50FE50F904D8993FF741C
:10476A0000250FF582E43400F583EFF0050FE50F1D
:10477A00B412E59006EC740AF0A37406F0750F0201
:10478A00E50F904D8993FF74EC250FF582E434060A
:10479A00F583EFF0050FE50FB408E5904D9AE49321
:1047AA009006F4F0E4A3F0F545F546749B2546F52A
:1047BA0082744D3545F583E493FF741B2546F582D3
:1047CA0074033545F583EFF00546E5467002054565
:1047DA00B4DFD8E545B402D3900A88E0B4020C905D
:1047EA00031D7474F0A37402F0A3F0E4F545F546D2
:1047FA00749B2546F582744D3545F583E493FF7421
:10480A00122546F58274003545F583EFF00546E535
:10481A004670020545B4DFD8E545B402D3900013CB
:10482A007407F0127DDB8012900A3EE05402FFF01A
:10483A00BF02077D017F01128200900A3EE508F05F
:10484A005404F060030248E9F50FE50F90725C9397
:10485A00FF741B250FF582E43408F583EFF0050F8A
:10486A00E50FB404E5E4F50FE50F90726093FF7469
:10487A001F250FF582E43408F583EFF0050FE50FE5
:10488A00B428E5E4F50FE50F9072A093FF7447256D
:10489A000FF582E43408F583EFF0050FE50FB41E37
:1048AA00E5E4F50FE50F9072E093FF7487250FF5A5
:1048BA0082E43408F583EFF0050FE50FB41AE5E456
:1048CA00F50FE50F9072FA93FF74C7250FF582E48E
:1048DA003408F583EFF0050FE50FB41EE58012905A
:1048EA000A3EE05404FFF0BF04077D027F011282F2
:1048FA0000E4FF90800CE0FE74152FF8A6060FBFA7
:10490A0008F17815E6FF5480F547EF5460F548EF53
:10491A005403F54908E6754A00F54B08E6754C005C
:10492A00F54D08E6FEEE424C08E6FD754E00F54FE1
:10493A0008E6FEEE424E8D3D08E6755000F5510838
:10494A00E6FEEE4250E54870081277594003752D8D
:10495A0002900A3EE50AF05401F06003024A6CE54F
:10496A0048C413540764016003024A81E547705D35
:10497A00E54B6401454A6003024A7EE54F640145FE
:10498A004E601DE54F7004E54E64036013E54F70F9
:10499A0004E54E64016009E4B54F0EE54EB404091E
:1049AA00855043855144752C07E54F64027004E530
:1049BA004E6405600BE54F6482454E6003024A81EE
:1049CA00855043855144752C0922024A7EE5476485
:1049DA00806003024A81E54B6481454A6030E54BB9
:1049EA006482454A6028E54B6483454A6020E54B6A
:1049FA006484454A6018E54B6485454A6010E54B76
:104A0A006486454A6008E54B6487454A7052E54F1B
:104A1A0064017004E54E64026014E54F6402700498
:104A2A00E54E64056008E54F6482454E70031273D3
:104A3A00CFE54F454E6026E54F6401454E601EE5C1
:104A4A004F7004E54E64016014E54F7004E54E644E
:104A5A0003600AE54F7004E54E6404701A020016FA
:104A6A008012900A3EE05401FFF0BF0107E4FD7F87
:074A7A0003028200752D020A
:014A81002212
:107DDB0090D2CCE070209009BCE0900008F09009A4
:107DEB00BDE0900009F09009BEE090000AF0900908
:077DFB00BFE090000BF02235
:107F8D00E52C147003027A3590800BE04404F04424
:037F9D0001F022CE
:107E7000E52C24F9600E24FE600724077009027BBC
:107E80007B02747B0222B190800BE04404F0440139
:027E9000F022DE
:107C9700E52C24F76016240270289009BBE06005E4
:107CA700752D018003752D02E4F52C229009BBE0A8
:107CB7006005752D018003752D02E4F52C9009BB35
:0D7CC700F022E4F52C90800BE04401F02247
:0B7FC50090800BE04404F04401F02227
:107E0200900A3EE50AF05408F07008908021E05490
:107E12007FF022900A3EE05408FFF0BF08077D037E
:067E22007F031282002222
:107D4600900A3EE509F05410F0701890D0E6F090D5
:107D5600D0E574FFF09009C07405F0908022E054DD
:107D6600FDF022900A3EE05410FFF0BF10077D049C
:067D76007F0212820022D0
:107BC700900A3EE509F05420F0702A90D2E174053E
:107BD700F0A3F090D0E67401F090D0E574FFF09038
:107BE700C265E04480F0908022E054FBF090800072
:107BF700E04408F022900A3EE05420FFF0BF20073F
:087C07007D057F0212820022BC
:107D7C00900A3EE509F05440F0701290D0E6F09075
:107D8C00D0E574FFF0908022E054F7F022900A3E88
:107D9C00E05440FFF0BF40077D067F0212820022B4
:10775900E54A7070E54BB40D00506990776BF828D5
:1077690028730277920277950277CD02779802778C
:10777900CD02779B0277A10277A70277AD0277B591
:107789000277BB0277C10277C7027012026B8F02C0
:107799006853200003027FA0200003026C862000AA
:1077A9000302751C200005127FDBD322200003028F
:1077B9007CD4200003027A8D200003025C9D200006
:0677C90003027AE0C32276
:10701200E4F511F512E5491470030270C814601FFB
:10702200240260030270C6908000E0540125E0F55E
:1070320011900322E0C41313540142110270C8E5F7
:107042004F454E7007A20033F511807A900A3EE553
:1070520009F05404F07059E54F547FFDE54FAE4EF0
:107062007807CEC313CE13D8F94E24FF920EEDD378
:10707200940A400122300E0553100F8007E510C418
:10708200540FF510E510C39410400122300E089001
:107092000A3DE0F511802FED1425E02461F582E42C
:1070A2003480F583E05408131313541FF51180162E
:1070B200900A3EE05404FFF0BF040B7D027F0212EF
:1070C20082008002C32290800CE511F0E512F07577
:0370D2002D01D3BA
:0170D5002298
:106B8F00E54C6003026C7FE54D147003026C7414C6
:106B9F007003026C7F24026003026C7FE54F454E49
:106BAF007004C200C322E54F547FFDE54FAE4E780F
:106BBF0007CEC313CE13D8F94E24FF920EEDD39404
:106BCF000A400122900A3EE509F05408F0600302E2
:106BDF006C60300E0553100F8007E510C4540FF58D
:106BEF0010E510C39410400122ED14FF25E0FE3094
:106BFF000E322441F582E43480F583E04410F074C2
:106C0F00412EF582E43480F583E054EFF0EF25E078
:106C1F002441F582E43480F583E054F7F0E4900AE0
:106C2F003DF0804E2461F582E43480F583E044101A
:106C3F00F074612EF582E43480F583E054EFF0EFC9
:106C4F0025E02461F582E43480F583E054F7F08089
:106C5F0021900A3EE05408F0640870167D037F020D
:106C6F00128200800D908000E054FEF08004C32259
:066C7F00C322752D01D3B4
:016C850022EC
:10685300E54C6003026996E54D14607514607A2473
:10686300026003026996E54F454E7004C200C322DD
:10687300E54F547FFBE54FAE4E7807CEC313CE13DF
:10688300D8F94E24FF920EEBD3940A400122300E26
:106893000553050F8005EDC4540FFDEDC39410405F
:1068A3000122EB14300E1825E02441F582E43480F4
:1068B300F583E04408F0900A3D7401F002699825DD
:1068C300E02461F582E43480F583E04408F0026952
:1068D30098908000E044018034E54EFFE4600302B9
:1068E3006994EF24FE601A14601E14602714700369
:1068F30002699824046003026994908008740280FA
:106903000C908008740480059080087408F0752D3D
:10691300010269989080087410F090800BE04401A4
:10692300F0E4FFE490800CF00FBF09F7E4FF9080E0
:106933000C74AAF00FBF08F6E4FF90800C74EEF01D
:106943000FBF08F690800C74FEF0E4FF90800C7487
:10695300FFF00FBF0BF690800C747FF074BFF074E0
:10696300DFF074EFF074F7F074FBF074FDF014F0E3
:10697300747EF074BFF074DFF074EFF074F7F074AA
:10698300FBF074FDF0747EF090800BE04402F08025
:0669930004C322C322D35D
:0169990022DB
:107FA000C3E54C9401400122908001E54DF0752D10
:037FB00001D322D8
:106C8600E54C14B407004003026D57906C9F75F0F5
:106C960003A4C58325F0C58373026CB4026CC002DD
:106CA6006CD7026D59026D59026D29026D3B781D34
:106CB60076000876009000008073E54D7011781D0F
:106CC600760308761B90031EE0FE90031D8075C3B5
:106CD60022E54D14601B14602424FE602C24FE6003
:106CE600342406703C781D760808761B90081B80B5
:106CF6003C781D760808761F90081F8030781D7630
:106D0600080876479008478024781D760808768715
:106D16009008878018781D76080876C79008C7807F
:106D26000CC322781D76060876EC9006ECE07543D7
:106D360000F544801E781D7600087612900015E056
:106D4600FE900014E07C002400F544EC3EF5438000
:106D560002C322D3E5449551E5439550400685503C
:0C6D660043855144752C01127A35D3226C
:10751C00E54C24FE601314602224027076781D76EC
:10752C00000876009000008060E54D700C781D76A8
:10753C000308761B90031B8050C322E54D14601B7F
:10754C0014602424FE602C24FE60342406704278DF
:10755C001D760808761B90081B802E781D7608086F
:10756C00761F90081F8022781D76080876479008B1
:10757C00478016781D7608087687900887800A78E9
:10758C001D76080876C79008C7E0754300F544805F
:10759C0004C322C322D3E5449551E54395504006DC
:0B75AC00855043855144752C02D3220A
:0A7FDB0090800CE534F0752D0122B2
:107CD400AD4DED700BF534908001E0547FF08024BD
:107CE400EDD39401400122854D3412791C12658034
:107CF4009080067410F0A37427F0908001E0448013
:097D0400F0127B2E752D01D32233
:107A8D00908001E020E702C322E534147038E54F01
:107A9D00454E700690800CE53EF0E54F6401454E75
:107AAD00700690800CE53FF0E54F6402454E700680
:107ABD0090800CE540F0E54F6403454E70109080CA
:107ACD000CE541F08008C32290800CE53EF0752D49
:037ADD0001D322B0
:105C9D00908001E020E703025E97E54E6003025E0F
:105CAD0097E54F14601C147003025E3114700302EB
:105CBD005E3C24036003025E97854F30854D3E02A6
:105CCD005E37854F31854D3F126580127B2E752DC8
:105CDD0001E53F6003025DB4900A3EE509F0540111
:105CED00F06003025DA190C005E054FEF0E490C0A9
:105CFD000CF09080A0E04410F054EFF090D0E674DA
:105D0D0001F090C265E04480F090D2E1E04440F0B3
:105D1D0090D0CFE04401F0E50B30E5097D057F041F
:105D2D001282008003126D7290D2CCE06003025E8D
:105D3D002F90D2DAF090D2D97406F090D2D87401A7
:105D4D00F0A304F0A37408F0E4900C8CF0900C8C8C
:105D5D00E0FF24DDF582E43409F583E0FE74CE2FF7
:105D6D00F582E434D2F583EEF0900C8CE004F0E093
:105D7D00B402DA90D2D074AAF0E490D2D7F090D2D7
:105D8D00D67480F090D2D87402F07FC87E00127F56
:105D9D00D0025E2F900A3EE05401F06401600302D0
:105DAD005E2FFD7F028078900A3EE508F05401F0E9
:105DBD00705E90D2DAF090D2D97406F090D2D87489
:105DCD0001F07F647E00127FD090D2D97452F0E43E
:105DDD0090D2D7F090D2D674A0F090D2D87402F0B1
:105DED0090C265E0547FF0E490D0E6F0E50B30E62C
:105DFD00097D067F0412820080031278B09080A086
:105E0D00E04410F054EFF090C005E04401F0801232
:105E1D00900A3EE05401FFF0BF0107E4FD7F01123F
:105E2D008200D322854F32854D4012658080538587
:105E3D004F33854D41126580E541602790C0EAE002
:105E4D0054FEF090C004E04401F090D0EAE054FE1E
:105E5D00F09080A6E04410F054EFF090C00EE541B4
:105E6D00F0801F90C004E054FEF090D0EAE04401B1
:105E7D00F090C0EAE04401F09080A6E04410F054A8
:0B5E8D00EFF0127B2E752D01D322C315
:015E980022E7
:107AE0007FFFE54E702EE54F24FE601214601414E3
:107AF00060161460182404701B90033180129003E8
:107B000038800D90033F8008900346800390034D1A
:107B1000E05403FFBF0115908004E090800CF090CA
:0D7B20008005E090800CF0752D01D322C38C
:017B2D002235
:107A3500C3E5449440E54394005004AB4480027B85
:107A450040EBFDC3E5449DF544E5439400F543450E
:107A550044700ABB400790800BE04402F0E4FFEF5E
:107A6500C39B5018781DE6FC08E6F5828C83E090F0
:107A7500800CF006E6187001060F80E3E5444543E7
:077A85007005F52C752D01C1
:017A8C0022D7
:107B7B00C3E5449440E54394005004AF4480027F36
:107B8B0040EFFDC3E5449DF544E5439400F543E424
:107B9B00FEEEC39F501A90800CE0FD781DE6FA08AC
:107BAB00E6F5828A83EDF006E6187001060E80E199
:0B7BBB00E54445437005F52C752D01D5
:017BC600229C
:107B2E007F01EF1425E0FE2441F582E43480F583D5
:107B3E00E04410F074412EF582E43480F583E05475
:107B4E00EFF00FBF0BDC7F01EF1425E0FE2461F593
:107B5E0082E43480F583E04410F074612EF582E403
:0C7B6E003480F583E054EFF00FBF0BDC17
:017B7A0022E8
:107F0400908029E0FFFEEEF4FEEF5E908029F0A35E
:077F1400E0FFF4FEEF5EF058
:017F1B002243
:107F1C0090802BE0FFFEEEF4FEEF5E90802BF0A342
:077F2C00E0FFF4FEEF5EF040
:017F3300222B
:10791C007F01EF1425E0FE2440F582E43480F583EA
:10792C00E4F074412EF582E43480F583E4F0746065
:10793C002EF582E43480F583E4F074612EF582E454
:10794C003480F583E4F0742F2FF582E43480F583D2
:10795C00E4F00FBF0BBCE4FF74802FF582E434809D
:10796C00F583E4F074902FF582E43480F583E4F031
:04797C000FBF11E444
:0179800022E4
:0E747B00900A3EE508F05440F06003027509E7
:10748900C3E5449440E5439400500585440F8003C7
:10749900750F40C3E544950FF544E5439400F54362
:1074A900E4F510E510C3950F501090800CE0FF74BF
:1074B900352510F8A607051080E9850F42E54FB478
:1074C9000221E54EB4051CE4B54D18E54CB4011391
:1074D900E535B4010690C0107401F0E535700490EB
:1074E900C010F0E54FB40211E54EB4050CE4B54DFA
:0F74F90008E54CB40203127EB39009BB7401F096
:1075080022900A3EE05440FFF0BF40077D067F010D
:0475180012820022B9
:107EB300E536B4800890C0107401F08005E490C0EA
:0C7EC30010F0E536907F5A9390D0C9F083
:017ECF002290
:1073CF00900A3EE508F05420F06003027468E54B24
:1073DF006481454A7031B54D0AE54CB40105E4901E
:1073EF00800CF0E54DB4010BE54CB4090690800C10
:1073FF007401F0E4B54D0DE54CB40208E490800C37
:10740F00F07430F0752D01E54B6482454A7013B569
:10741F004D10E54CB4020BE490800CF0741EF07527
:10742F002D01E54B6483454A7013B54D10E54CB4FF
:10743F00020BE490800CF07432F0752D01E54B6473
:10744F0084454A7026B54D23E54CB4021EE4908066
:10745F000CF0740AF0752D0122900A3EE05420FFC3
:0C746F00F0BF20077D057F011282002283
:0E001600900A3EE508F05408F06003020ACD9F
:10002400E54B6481454A6003020295E54F454E70F5
:1000340021E54D7004E54C64026003020295900AC8
:100044004BE090800CF0752D01900A4B7406F00281
:100054000295E54F64027004E54E64037046B54DA5
:100064000EE54CB40209E490800CF074F88031E59C
:100074004DB40108E54CB40903020292E4B54D10F5
:10008400E54CB4070B90800C7401F0F52D02029539
:10009400E54D7004E54C6403600302029590800C06
:1000A400F002028DE54F6401454E700612358F0251
:1000B4000295E54F7004E54E6401600AE54F700453
:1000C400E54E64037046E50C30E1097D017F0512BD
:1000D40082008003124A829009BBE0602CE4900CF9
:1000E4008CF0900C8CE0FFC39551E495505017743C
:1000F400DD2FF582E43409F583E090800CF0900C58
:100104008CE004F080DC02028D020292E54F700460
:10011400E54E64046003020292E54D7004E54C640C
:10012400017032900C8DF09009DBE0FF900C8DE0B3
:10013400FEC39F501D9009BAE0FFEE2F2400F58204
:10014400E434D0F583E090800CF0900C8DE004F062
:1001540080D502028DE54D7004E54C640270329046
:100164000C8DF09009DBE0FF900C8DE0FEC39F50F6
:100174001D9009BAE0FFEE2F2400F582E434C0F5A7
:1001840083E090800CF0900C8DE004F080D50202A6
:100194008DE54D7004E54C64037032900C8DF09045
:1001A40009DBE0FF900C8DE0FEC39F501D9009BA5F
:1001B400E0FFEE2F2400F582E434D2F583E0908052
:1001C4000CF0900C8DE004F080D502028DE54D70AA
:1001D40004E54C64047044900C8DF09009DBE0FF5E
:1001E400900C8DE0FEC39F40030202959009BAE093
:1001F400FFEE2F2400F582E434C2F583E0900C8EE8
:10020400F07F647E00127FD090C018E090800CF0E4
:10021400752D01900C8DE004F080C0E4B54D28E507
:100224004CB40523E490800CF0F090D2E1E090808F
:100234000CF09009DCE090800CF0752D01640170E5
:10024400509009DCF0804AE54D7004E54C64077079
:1002540040900C8DF09009DBE0FF900C8DE0FEC324
:100264009F5026EEFF9009BAE02FFF9009B9E034C1
:1002740000FE748A2FF582740A3EF583E090800CA8
:10028400F0900C8DE004F080CC752D018003752D69
:1002940002E54B6482454A60030203F4E54F6401BE
:1002A400454E700612358F0203F4E54F7004E54E97
:1002B40064047070E54D7004E54C6401603BE54DE9
:1002C4007004E54C64026031E54D7004E54C640350
:1002D4006027E54D7004E54C6404601DE54D700431
:1002E400E54C64056013E54D7004E54C6406600953
:1002F400E4B54D0BE54CB40906E490800C8021E58F
:100304004D7004E54C6407600DE54D7004E54C64E4
:100314000860030203F4E490800CF0F0F0F0F0F0D5
:10032400F0F0805EE54F7004E54E64036003020361
:10033400C8B54D0BE54CB40206E490800C8043E54F
:100344004D7004E54C64016013E54D7004E54C64A4
:10035400036009E4B54D0BE54CB40806E490800C49
:100364008020E4B54D0FE54CB4060A90800C744C23
:10037400F074FF8070E4B54D0CE54CB40707E490CD
:10038400800CF08060E4B54D0EE54CB40909908012
:100394000C7414F0E4804EE4B54D0FE54CB40A0A35
:1003A40090800C74F0F0740A803BE4B54D0BE54C7E
:1003B400B40506E490800C802C752D02900A4B74D1
:1003C40007F0802CE4B54F25E54EB40120E54D70CF
:1003D40004E54C64066009E4B54D10E54CB40B0B20
:1003E400E490800CF0F0752D0180058000752D02DD
:1003F400E54B6483454A6003020575E54F64014596
:100404004E700612358F020575E54F7004E54E6493
:10041400046003020498E54D7004E54C64016045F2
:10042400E54D7004E54C6402603BE54D7004E54C19
:1004340064036031E54D7004E54C64046027E54DC8
:100444007004E54C6405601DE54D7004E54C6406DC
:100454006013E54D7004E54C64096009E4B54D0C86
:10046400E54CB40A0790800C74FF8022E54D7004BB
:10047400E54C6407600DE54D7004E54C64086003C9
:1004840002057590800C74FFF0F0F0F0F0F0F0F0DD
:10049400F002056CE54F7004E54E64036003020549
:1004A40053B54D0FE54CB4010A90800C7405F0E48B
:1004B40002056CE4B54D0FE54CB4020A90800C744F
:1004C400FFF0E402056CE4B54D0FE54CB4030A906B
:1004D400800C7432F0E402056CE4B54D0EE54CB4C6
:1004E400060990800C74B4F0E4807DE4B54D0EE50B
:1004F4004CB4070990800C74C8F0E4806BE4B54DEB
:100504000EE54CB4080990800C740AF0E48059E4B8
:10051400B54D0EE54CB4090990800C7464F0E48088
:1005240047E4B54D0FE54CB40A0A90800C7420F0F2
:10053400741C8034E4B54D0CE54CB4050790800C74
:1005440074028024752D02900A4B7407F08022E413
:10055400B54F1BE54EB40116E4B54D15E54CB40B8F
:100564001090800C7432F0E4F0752D018003752D29
:1005740002E54B6484454A60030206A9E54F700412
:10058400E54E64047073E54D7004E54C6401605DF0
:10059400E54D7004E54C64026053E54D7004E54C90
:1005A40064036049E54D7004E54C6404603FE54D27
:1005B4007004E54C64056035E54D7004E54C640653
:1005C400602BE54D7004E54C64076021E54D700433
:1005D400E54C64086017E54D7004E54C6409600D52
:1005E400E54D7004E54C640A60030206A990800C92
:1005F4007401F0E4F0F00206A0E54F7004E54E64E7
:10060400037076E54D7004E54C64016045E54D707A
:1006140004E54C6402603BE54D7004E54C64036002
:1006240031E54D7004E54C64076027E54D7004E541
:100634004C6408601DE54D7004E54C640A6013E5E4
:100644004D7004E54C64066009E4B54D0EE54CB408
:10065400090990800C7401F0E48041E4B54D0FE584
:100664004CB4050A90800C7401F0F52D8037752D7B
:1006740002900A4B7407F0802CE4B54F25E54EB484
:100684000120E54D7004E54C64066009E4B54D15A0
:10069400E54CB40B1090800C7401F0E4F0752D015E
:1006A4008003752D02E54B6485454A600302077794
:1006B400E54F7004E54E6404600302076EE54D7077
:1006C40004E54C64016077E54D7004E54C64026018
:1006D4006DE54D7004E54C64036063E54D7004E51D
:1006E4004C64046059E54D7004E54C6405604FE5C5
:1006F4004D7004E54C64066045E54D7004E54C64BA
:1007040009603BE54D7004E54C640A6031E54D70C9
:1007140004E54C640B6027E54D7004E54C640C6003
:100724001DE54D7004E54C640D6013E54D7004E562
:100734004C640E6009E4B54D0CE54CB40F07908091
:100744000C74048018E54D7004E54C64076009E4FA
:10075400B54D12E54CB4080D90800C740AF0E4F029
:10076400752D01800E752D028009752D02900A4B9E
:100774007407F0E54B6486454A600302086CE54F54
:100784007004E54E6403600DE54F7004E54E6404A7
:10079400600302081AE54D7004E54C64017003021D
:1007A400085CE54D7004E54C6402700302085CE5E6
:1007B4004D7004E54C6403700302085CE54D70045D
:1007C400E54C6404700302085CE54D7004E54C6478
:1007D40005700302085CE54D7004E54C640660781E
:1007E400E54D7004E54C6407606EE54D7004E54C1E
:1007F40064086064E54D7004E54C6409605AE4B52E
:100804004D07E54CB40A02804FE4B54D07E54CB4FE
:100814000B028034804FE54F7004E54E640170454F
:10082400B54D0CE54CB4040790800C7402802EE4A2
:10083400B54D0CE54CB4110790800C740B801EE48C
:10084400B54D0CE54CB4060790800C740F800EE493
:10085400B54D10E54CB40B0B90800C7403F0752D62
:100864000180058000752D02E54B6487454A6003CD
:10087400020ADFE54F7004E54E6404707CE54D70B8
:1008840004E54C64016045E54D7004E54C64026088
:100894003BE54D7004E54C64036031E54D7004E5BF
:1008A4004C64046027E54D7004E54C6405601DE567
:1008B4004D7004E54C64066013E54D7004E54C642A
:1008C400096009E4B54D0BE54CB40A06E490800CCC
:1008D4008021E54D7004E54C6407600DE54D70041E
:1008E400E54C64086003020ADFE490800CF0F0F049
:1008F400F0F0F0F0F0F0020A41E54F7004E54E64C8
:10090400036003020A5AB54D22E54CB4021D90D28D
:10091400CCE0700A900C7EE090800CF08006908011
:100924000C7476F0E490800C020A41E4B54D22E5A3
:100934004CB4031D90D2CCE0700A900C7FE0908000
:100944000CF0800690800C7405F0E490800C020A90
:1009540041E4B54D1DE54CB4011890D2CCE07006CD
:10096400900C80E08001E490800CF0E490800C0214
:100974000A41E4B54D1DE54CB4061890D2CCE070A4
:1009840006900C81E08001E490800CF0E490800CEF
:10099400020A41E4B54D22E54CB4071D90D2CCE0E7
:1009A400700A900C82E090800CF0800690800C74A9
:1009B40064F0E490800C020A41E4B54D21E54CB4A6
:1009C400081C90D2CCE0700A900C83E090800CF06C
:1009D400800690800C7408F0E490800C805FE4B58D
:1009E4004D21E54CB4091C90D2CCE0700A900C84E3
:1009F400E090800CF0800690800C743CF0E49080D1
:100A04000C803AE4B54D28E54CB40A2390D2CCE0EE
:100A14007012900C85E090800CF0900C86E0908031
:100A24000CF0806490800C7488F07413F08059E4A6
:100A3400B54D0EE54CB4050990800C7402F0020A21
:100A4400C5E54D7004E54C640B6003020ADF908039
:100A54000C04F0F52D22E54F7004E54E6401702A74
:100A6400E54D7004E54C640B707190D2CCE07012CB
:100A7400900C87E090800CF0900C88E090800CF053
:100A84008006E490800CF0F08037E54F6401454E19
:100A94007033E54D7004E54C6401703F900C8CF0AC
:100AA400900C8CE0FFC3941A501774C12FF582E4A4
:100AB4003409F583E090800CF0900C8CE004F08015
:080AC400DF752D0122752D02E2
:100ACC0022900A3EE05408FFF0BF08077D037F0127
:040ADC001282002260
:0E22B100900A3EE508F05410F060030228A1E8
:1022BF00C3E5449440E5439400900C8C5005E544ED
:1022CF00F080037440F0900C8CE0FFC3E5449FF561
:1022DF0044E5439400F543E4A3F0900C8CE0FFA396
:1022EF00E0FEC39F501990800CE0FF74DD2EF58245
:1022FF00E43409F583EFF0900C8DE004F080DBE51A
:10230F004F6401454E60030224A8E54D7004E54C6F
:10231F0064016009E4B54D36E54CB40231E4900C2C
:10232F008DF0900C8CE0FFA3E0FEC39F502074DD76
:10233F002EF582E43409F583E0FF74C12EF582E4B3
:10234F003409F583EFF0900C8DE004F080D4E4B500
:10235F004D39E54CB40334E4900C8DF0900C8CE0C7
:10236F00FFA3E0FEC39F400302248A74DD2EF58293
:10237F00E43409F583E0FF743F2EF582E4340AF567
:10238F0083EFF0900C8DE004F080D1E4B54D12E5B1
:10239F004CB4050D90C027E04401F054FEF0022428
:1023AF008AE54D7004E54C6402600302248A1270C2
:1023BF00D6E490D0E6F090D0CFE054FEF0E4900950
:1023CF00DFF09009C3E0B40210900A88E064016066
:1023DF00089009DE7402F080159009C3E0B4010E75
:1023EF00900A88E0640160069009DE7401F090099C
:1023FF00DEE0640170449009C4E0B401069009DD89
:10240F007405F09009C4E0B402069009DD7403F07E
:10241F009009C4E0B403069009DD7401F09009C47B
:10242F00E0B404069009DD7402F09009C4E064057D
:10243F0070499009DD7404F080419009C4E0B40143
:10244F00069009DD7403F09009C4E0B40206900908
:10245F00DD7401F09009C4E0B403069009DD740245
:10246F00F09009C4E0B404069009DD7404F09009FB
:10247F00C4E0B405069009DD7405F09009BB740142
:10248F00F09009C0E06012900A3FE0B4020B90098F
:10249F00C0E014F0E49009BBF0E54F7004E54E6422
:1024AF00016009E4B54F16E54EB40311E50C30E1B8
:1024BF00097D017F051282008003124A82E54F7069
:1024CF0004E54E640460030228B3B54D30E54CB407
:1024DF00012BE4F52E9009DFE0FFE52EC39F4003AB
:1024EF0002289A9009DEE0FF9009DDE0252E2400F6
:1024FF00F582E434D0F583EFF0052E80D8E4B54DA6
:10250F0030E54CB4022BE4F52E9009DFE0FFE52E09
:10251F00C39F400302289A9009DEE0FF9009DDE097
:10252F00252E2400F582E434C0F583EFF0052E80CC
:10253F00D8E4B54D30E54CB4032BE4F52E9009DF0C
:10254F00E0FFE52EC39F400302289A9009DEE0FFCB
:10255F009009DDE0252E2400F582E434D2F583EFD7
:10256F00F0052E80D8E4B54D1EE54CB40419900942
:10257F00DEE0FF9009DDE02400F582E434C2F5834C
:10258F00EFF07F64022730E4B54D27E54CB4052208
:10259F009009DFE0FE9009DDE07C002400FFEC3EB7
:1025AF009009B9F0A3EFF09009DEE09009DBF0029B
:1025BF00289AE54D7004E54C64066003022694905A
:1025CF0009DDE0B40120E490D2DAF090D2D974069C
:1025DF00F090D2D87401F07F647E00127FD090D239
:1025EF00D974620226829009DDE0B4021FE490D212
:1025FF00DAF090D2D97406F090D2D87401F07F64DB
:10260F007E00127FD090D2D9746080679009DDE090
:10261F006403703890D2DAF090D2D97406F090D269
:10262F00D87401F0A37450F090D2D87401F090D206
:10263F00DAF090D2D9F0E490D2CEF090D2D804F064
:10264F00E490D2DAF090D2D9746080279009DDE05F
:10265F006404600302289A90D2DAF090D2D97406FB
:10266F00F090D2D87401F07F647E00127FD090D2A8
:10267F00D974C7F090D2D87401F09009DDE0900AB8
:10268F004AF002289AE54D7004E54C640760030296
:10269F0027E6900A4AE0FF6401600DEF64026008CC
:1026AF00EF640460030227389009E6E0FE9009E525
:1026BF00E07C002400FFEC3E900C8EF0A3EFF0E4E2
:1026CF0090D2DAF090D2D97406F090D2D87401F08B
:1026DF00A304F0A37408F0E4900C90F0900C90E039
:1026EF00FF24DDF582E43409F583E0FE74CE2FF587
:1026FF0082E434D2F583EEF0900C90E004F0E0B475
:10270F0008DA900C8FE090D2D7F0900C8EE090D238
:10271F00D6F090D2D87402F07FC87E00127FD07F9F
:10272F00C87E00127FD002289A900A4AE0640360A4
:10273F000302289A9009E6E0FE9009E5E07C002468
:10274F0000FFEC3E900C8EF0A3EFF0E490D2DAF0A5
:10275F0090D2D97406F090D2D87401F0A37450F0CF
:10276F0090D2D87401F090D2DAF090D2D9F0E490F0
:10277F00D2CEF090D2D804F0A374AFF0A37401F0CE
:10278F00900C8FE090D2D7F0900C8EE090D2D6F0D4
:10279F009009DDE090D2CEF090D2D87402F0E490A0
:1027AF000C90F0900C90E0FFC39407400302289A1E
:1027BF0090D2D974AFF0A37401F074DE2FF582E4D8
:1027CF003409F583E090D2CEF090D2D87401F09016
:1027DF000C90E004F080CCE54D7004E54C6408608B
:1027EF000302289A9009E6E0FE9009E5E07C0024B8
:1027FF0000FFEC3E900C8EF0A3EFF0900C8EE0B447
:10280F000818A3E0B40013E50C30E3097D037F053E
:10281F001282008076121BFF8071900C8EE0B4093B
:10282F0030A3E0B4002BE4A3F0900C90E0FF24DD84
:10283F00F582E43409F583E0FE741D2FF582E4344C
:10284F000AF583EEF0900C90E004F0E0B408DA8023
:10285F003AE4900C90F0900C90E0FF24DDF582E4C8
:10286F003409F583E0FEEFFD900C8FE02DFD900C09
:10287F008EE03400FC748A2DF582740A3CF583EEE9
:10288F00F0900C90E004F0E0B408CB9009BB740119
:01289F00F048
:1028A00022900A3EE05410FFF0BF10077D047F0124
:0428B000128200226E
:0E358F00900A3EE509F05402F060030239385C
:10359D00E54D7004E54C640160030237E19009C309
:1035AD00E064026003023660900A88E064017003F3
:1035BD00023660E4900C8FF0900C8FE0FFC39412F4
:1035CD00501774C12FF582E43409F583E090800C17
:1035DD00F0900C8FE004F080DF9009C4E0B4020994
:1035ED00E490800CF0749680349009C4E0B4010C22
:1035FD00E490800CF07458F0740280389009C4E0A7
:10360D00B4050CE490800CF07460F0740980259082
:10361D0009C4E0B4030DE490800CF074C6F0E4F03E
:10362D00F080149009C4E0B4040DE490800CF074A3
:10363D0018F07403F0E4F0900A88E090800C7004A8
:10364D0074808002749FF07403F0E4F0F0752D0126
:10365D000237709009C3E064016003023770900A6D
:10366D0088E0640170030237709009C4E0B4032C44
:10367D00E4900C8FF0900C8FE0FFC39412501774F0
:10368D00C12FF582E43409F583E090800CF0900CA5
:10369D008FE004F080DF127F4C0237709009C4E098
:1036AD00B4042CE4900C8FF0900C8FE0FFC39412B7
:1036BD00501774C12FF582E43409F583E090800C26
:1036CD00F0900C8FE004F080DF127F620237709073
:1036DD0009C4E0B4022BE4900C8FF0900C8FE0FF46
:1036ED00C39412501774C12FF582E43409F583E0A9
:1036FD0090800CF0900C8FE004F080DF127F34800E
:10370D00629009C4E0B4052BE4900C8FF0900C8FFF
:10371D00E0FFC39412501774C12FF582E43409F5FC
:10372D0083E090800CF0900C8FE004F080DF127E2F
:10373D00EA80309009C4E0B40129E4900C8FF09038
:10374D000C8FE0FFC39412501774C12FF582E4342F
:10375D0009F583E090800CF0900C8FE004F080DF91
:10376D00127ED09009C3E06401600302394A900AC9
:10377D0088E06401600302394A900C8FF0900C8F41
:10378D00E0FFC39412501774C12FF582E43409F58C
:10379D0083E090800CF0900C8FE004F080DF9009B6
:1037AD00C4E0B4050302390D9009C4E0B40203026C
:1037BD0039179009C4E0B403030239219009C4E01C
:1037CD00B4040302392B9009C4E06401600302398B
:1037DD004A023935E4B54D18E54CB40213E54B6496
:1037ED0081454A600302394A90800C04F0F52D2280
:1037FD00E54D7004E54C6403600302394A900C8F6B
:10380D00F0900C8FE0FFC394035017743F2FF58297
:10381D00E4340AF583E090800CF0900C8FE004F016
:10382D0080DF900A3FE0640260030238B8900A8896
:10383D00E0FF64016075900A40E0B40209E49080F5
:10384D000CF074968034900A40E0B4010CE4908042
:10385D000CF07458F074028038900A40E0B4050CF6
:10386D00E490800CF07460F074098025900A40E0BB
:10387D00B4030DE490800CF074C6F0E4F0F0801405
:10388D00900A40E0B4040DE490800CF07418F074CC
:10389D0003F0E4F0EF90800C700474808002749F4C
:1038AD00F07403F0E4F0F0752D0122900A3FE0640E
:1038BD00017036900A88E06401602E900A40E0B4F1
:1038CD000302803C900A40E0B40402803D900A401F
:1038DD00E0B40202803E900A40E0B40502803F90C1
:1038ED000A40E064017056803F900A3FE064017029
:1038FD004C900A88E064017044900A40E0B40503DE
:10390D00027F4C900A40E0B40203027F62900A40AD
:10391D00E0B40303027F34900A40E0B40403027E56
:0B392D00EA900A40E0B40115027ED0D1
:10393800900A3EE05402FFF0BF02077D017F0212A9
:03394800820022D8
:1070D600900A3EE50AF05410F060030271869009AA
:1070E600C7E0FFE4FCFDFEFBFA7901F8125AC1A8DD
:1070F60004A905AA06AB079009C6E0FEE4FCFD2B31
:10710600FBEA3EFAED39F9EC38F89009C5E0FFE400
:10711600FEEB2FFFEE3AFEED39FDEC38FC900A4C03
:10712600125C33E47B107A27F9F8900A4CE0FCA352
:10713600E0FDA3E0FEA3E0FF125B4CA804A905AAAC
:1071460006AB07E47FE87E03FDFC125B4C900A4C1D
:10715600125C33E47F1EFEFDFC900A4CE0F8A3E0CF
:10716600F9A3E0FAA3E0FBD3125BEC400A900A4CC9
:10717600125C3F0000001E900A4FE09009E0F022EA
:10718600900A3EE05410FFF0BF10077D047F031203
:0371960082002252
:107ED000E490800CF074B0F07404F0E4F07480F07E
:0A7EE0007403F0E4F0F0752D0122A8
:107F3400E490800CF0742CF07401F0E4F0F074031D
:087F4400F0E4F0F0752D0122BC
:107F4C00E490800CF0744BF0E4F0F0F07402F0E488
:067F5C00F0F0752D01227A
:107EEA00E490800CF0748CF07401F0E4F07450F0BB
:0A7EFA007403F0E4F0F0752D01228E
:107F6200E490800CF07463F0E4F0F0F07402F0E45A
:067F7200F0F0752D012264
:0B7FD000EF1FAC0670011E4C70F62283
:10658000E534146003026708E53F640170269080DB
:106590003074F0F09080807411F09080907499F0D5
:1065A0007B017A059080917419F0A3DAFC90804108
:1065B0007401802AE53F6402702D90803074F0F001
:1065C0009080807411F09080907499F07B017A052E
:1065D0009080917419F0A3DAFC9080417402F090DD
:1065E000804074F402667BE53F6403702C90803039
:1065F00074F0F09080807411F09080907499F07B2A
:10660000017A059080917419F0A3DAFC90804174AE
:1066100003F090804074448062E53F6404702C90E5
:10662000803074F0F09080807411F09080907499B4
:10663000F07B017A059080917419F0A3DAFC9080C8
:10664000417403F090804074748030E53F640570BD
:106650003390803074F0F09080807411F0908090CE
:106660007499F07B017A059080917419F0A3DAFC9B
:106670009080417403F09080407493F0A3E0549FA5
:10668000F04420F0E53E704890803274FEF0908037
:106690008E7413F090809E7483F07A007B0FC3EBAE
:1066A000940FEA64809480501474902BF582E43443
:1066B00080F5837403F00BBB00010A80E1E4908055
:1066C00045F09080447404F0A3E0549FF04420F01F
:1066D000E5416401703290803174F6F090808674E8
:1066E00012F09080967491F07B077A0190809774F5
:1066F00011F0A3DAFCE4908043F09080427460F0E3
:08670000A3E0549FF04420F0D7
:01670800226E
:104D890012011001EF0201403A0900290100010254
:104D990000010902DF0204010080FA080B00020E7B
:104DA90003000209040000010E0100020D240100A4
:104DB900014D00001BB70001010924030201010094
:104DC90004001A240604F07735D1898D0047812E15
:104DD9007DD5E2FDB89808010301FF001224020104
:104DE90001020000000000000000030002000B2483
:104DF9000503010000027F05000705830310000673
:104E0900052503100009040100000E0200000F240B
:104E19000102A8018100020201000100000B240621
:104E2900010501010000000026240701008002E0BD
:104E39000100004B000000CA0800600900151605B2
:104E49000003151605002A2C0A00809698002624CE
:104E59000702004001F00000C01200008032020089
:104E69005802001516050003151605002A2C0A001C
:104E7900809698002624070300A000780000B0045B
:104E89000000A08C000096000015160500031516F9
:104E990005002A2C0A00809698002624070400B0F1
:104EA9000090000030060000A0B90000C6000015FF
:104EB90016050003151605002A2C0A00809698008D
:104EC90026240705006001200100C018000080E6C3
:104ED90002001803001516050003151605002A2CF3
:104EE9000A00809698001B240300058002E001A0B7
:104EF900007800B00090004001F00060012001013D
:104F09006406240D0101041B240402045955593275
:104F190000001000800000AA00389B7110010000F9
:104F290000001E240501004001F00000C01200002D
:104F39008070000058020080841E000180841E00D9
:104F49001E24050200A000780000B004000030759E
:104F5900000096000020A107000120A107001E24DF
:104F6900050300B00090000030060000D05C00008E
:104F7900C600002A2C0A00012A2C0A001E24050456
:104F8900006001200100C018000000630000180340
:104F990000A025260001A0252600162403000440B0
:104FA90001F000A0007800B000900060012001002D
:104FB90006240D01010409040101010E0200000784
:104FC90005810500020109040102010E0200000722
:104FD90005810500030109040103010E0200000710
:104FE90005810550030109040104010E02000007AF
:104FF90005810580030109040105010E020000076E
:105009000581059F0301080B020201000004090440
:105019000200000101000409240100012600010326
:105029000C2402010102000100000000092403030D
:105039000101000500082406050101030009040314
:105049000000010200000904030101010200000738
:105059002401030101000B2402010102100180BB9C
:105069000009058205600001000007250101000013
:015079000036
:1083CF0009026B0204010080FA080B00020E030081
:1083DF000209040000010E0100020D240100014DED
:1083EF0000001BB700010109240302010100040072
:1083FF001A240604F07735D1898D0047812E7DD55B
:10840F00E2FDB89808010301FF00122402010102E6
:10841F000000000000000000030002000B24050311
:10842F00010000027F0500070583031000060525E4
:10843F0003100009040100000E0200000E240101C8
:10844F00340181000202010001000B240601050125
:10845F00010000000032240701008002E00100004B
:10846F004B000000CA08006009001516050006152C
:10847F00160500801A060020A107002A2C0A0040CA
:10848F00420F0080841E0032240702004001F000DA
:10849F0000C01200008032020058020015160500BD
:1084AF000615160500801A060020A107002A2C0ABF
:1084BF000040420F0080841E003224070300A000FA
:1084CF00780000B0040000A08C0000960000151684
:1084DF0005000615160500801A060020A107002AC0
:1084EF002C0A0040420F0080841E00322407040033
:1084FF00B00090000030060000A0B90000C60000D8
:10850F00151605000615160500801A060020A1078E
:10851F00002A2C0A0040420F0080841E00322407DC
:10852F0005006001200100C018000080E60200185D
:10853F000300151605000615160500801A06002003
:10854F00A107002A2C0A0040420F0080841E001B46
:10855F00240300058002E001A0007800B000900025
:10856F004001F00060012001016406240D010104A7
:10857F0009040101010E0200000705810500020137
:10858F0009040102010E0200000705810500030125
:10859F0009040103010E02000007058105500301C4
:1085AF0009040104010E0200000705810580030183
:1085BF0009040105010E020000070581059F030153
:1085CF00080B02020100000409040200000101006F
:1085DF00040924010001260001030C2402010102F9
:1085EF000001000000000924030301010005000839
:1085FF002406050101030009040300000102000025
:10860F000904030101010200000724010301010015
:10861F000B2402010102100180BB000905820560D5
:10862F000001000007250101000000180355005349
:10863F00004200200055005600430020005600471E
:03864F00004100E7
:108200008F138D14E51364017043E514700302832A
:10821000ACE514B40103028652E514B402030287EC
:1082200032E514B403030287ECE514B404030287B7
:10823000EDE514B405030287EEE514B406030287E6
:10824000EFE514640760030283AB0287F0E5136473
:10825000027043E5147003028948E514B401030277
:10826000898EE514B4020302898FE514B403030276
:108270008990E514B40403028991E514B40503025E
:108280008992E514B40603028993E5146407600338
:108290000283AB028994E5136403703BE514700319
:1082A0000291EEE514B40203029127E514B403032E
:1082B0000289CFE514B404030289D0E514B40503A0
:1082C0000289D1E514B406030289D2E5146407607B
:1082D000030283AB0289D3E51364047043E5147091
:1082E000030289D4E514B401030289D5E514B4026C
:1082F00003028C38E514B40303028C39E514B4048A
:1083000003028E7EE514B40503028E7FE514B406E5
:1083100003028E80E514640760030283AB028E8142
:10832000E51364057040E5147003028E82E514B411
:108330000103028E83E514B40203028E84E514B4B3
:108340000303028E85E514B40403028FC2E514B45E
:10835000050302902CE514B4060302902DE5146485
:1083600007704802902EE5136406703FE514700311
:1083700002902FE514B40103029030E514B4020317
:10838000029031E514B40303029032E514B40403FF
:10839000029033E514B40503029034E514B40603E7
:0C83A000029125E514B407031291262277
:0183AC0022AE
:10865200E4900C91F0900C91E0FF904D8993FE74A0
:10866200002FF582E43400F583EEF0900C91E004E3
:10867200F0E0B412E09006EC740AF0A37406F090F5
:108682000C917402F0900C91E0FF904D8993FE746E
:10869200EC2FF582E43406F583EEF0900C91E004C1
:1086A200F0E0B408E0904D9AE4939006F4F0E4A36D
:1086B200F0F545F54674CF2546F58274833545F5C8
:1086C20083E493FF741B2546F58274033545F583D5
:1086D200EFF00546E54670020545B46BD8E545B4B2
:1086E20002D3900A88E0B4020C90031D7474F0A3C4
:1086F2007402F0A3F0E4F545F54674CF2546F58201
:1087020074833545F583E493FF74122546F582742C
:10871200003545F583EFF00546E54670020545B4A0
:108722006BD8E545B402D39000137407F0027DDBE9
:10873200E4900C91F0900C91E0FF90725C93FE74C7
:108742001B2FF582E43408F583EEF0900C91E004DF
:10875200F0E0B404E0E4900C91F0900C91E0FF9012
:10876200726093FE741F2FF582E43408F583EEF0F5
:10877200900C91E004F0E0B428E0E4900C91F090C9
:108782000C91E0FF90863A93FE74472FF582E43411
:1087920008F583EEF0900C91E004F0E0B418E0E408
:1087A200900C91F0900C91E0FF9072E093FE748730
:1087B2002FF582E43408F583EEF0900C91E004F09A
:1087C200E0B41AE0E4900C91F0900C91E0FF90720A
:1087D200FA93FE74C72FF582E43408F583EEF09025
:0987E2000C91E004F0E0B41EE08B
:0187EB00226B
:0187EC00226A
:0187ED002269
:0187EE002268
:0187EF002267
:01898E0022C6
:1087F000E4F543F544F52CF534F53075310AF532DE
:10880000F533F53E753F0AF540F541C200F52DF50B
:1088100029F52A900A3DF0F5259009DCF0900A4AE6
:1088200004F0127C0FC288D2A8D2AAC28A9009DDB5
:108830007401F0E50B30E7097D077F0412820080A8
:1088400003126A9590D2CCE07011E50C30E3097DFB
:10885000037F051282008003121BFF754A00754BCF
:1088600001754E03754F00754C05754D0075500030
:10887000755101900B0CE09009DDF0128E8390D2BF
:10888000D97403F0A37410F0E490D2D7F090D2D64C
:108890007480F090D2D87408F07FD07E07127FD019
:1088A00090D2C2E0B4AA1090D2C8E09009DDF09056
:1088B000D2C9E09009DEF0E49009C1F0A3F0A3046E
:1088C000F0A3F0A37440F0A37442F0A3740FF0E49B
:1088D000A3F0A3F0A3F0A3F0A3F0A3F0A3F0A3F000
:1088E000A3F0A3F0A3F0A3F0A3F0A3F0A3F0A3F0F0
:1088F000A3F0A3F0A3F0900A3F04F0A3F0A3F0E4E8
:10890000A3F0A374D0F0A37402F0E4A3F0A3749FC7
:10891000F0A37403F0E4A3F0A3F090D2CCE06010D5
:10892000E49009DFF09009DE04F09009DD7405F0B1
:1089300090D008E04480F090D004E04410F090D053
:08894000CCE04408F0C2012262
:1089480090C005E054FEF0E490C00CF09080A0E0E8
:108958004410F054EFF090D0E67401F090C265E056
:108968004480F090D2E1E04440F090D0CFE054FE53
:10897800F0E4900C1AF0E50B30E5077D057F040262
:068988008200126D722254
:01898F0022C5
:0189900022C4
:0189910022C3
:0189920022C2
:0189930022C1
:1089940090D0CAE04401F090C00FE04401F090C2CE
:1089A40065E04480F090D0CFE054FEF090D2E274C1
:1089B40005F090D2E1E0900C8AF0E013135401909A
:0B89C4000A89F0E4900A88F0C201224A
:0191EE00225E
:0189CF002285
:0189D0002284
:0189D1002283
:0189D2002282
:1043F7000000004D000000960000001DFFFFFFD5E4
:10440700FFFFFFAB0000008000000080FFFFFF956B
:10441700FFFFFFEB00000100000000000000016744
:1044270000000100FFFFFFA8FFFFFF490000010098
:10443700000001C60000000000000000000000238B
:1044470000000045000000690000008B000000AE7E
:10445700000000D0000000F2000001140000013548
:10446700000001560000017700000197000001B627
:10447700000001D6000001F4000002120000022F24
:104487000000024C00000268000002830000029D49
:10449700000002B7000002CF000002E7000002FEA2
:1044A70000000314000003290000033D000003502F
:1044B70000000362000003730000038300000392FF
:1044C7000000039F000003AC000003B7000003C116
:1044D700000003CA000003D2000003D9000003DE76
:1044E700000003E3000003E6000003E7000003E821
:1044F7000408102030406080A0C0E0040811213279
:10450700426283A2C2E10409112233446585A5C42E
:10451700E20409122435466788A7C6E3050913256F
:1045270037486A8AA9C7E4050A1326384A6C8DAC4E
:10453700C9E5050A14273A4C6F8FAECBE6050A1575
:10454700293C4E7192B0CCE7050B162A3E51749464
:10455700B2CEE8060B162C40537697B4D0E9060C7A
:10456700172D42557999B7D1E9060C182F44587C75
:104577009CB9D3EA060D1930465A7E9EBBD4EB0789
:104587000D1A32485D81A1BDD6EC070E1B344A5F78
:1045970084A4BFD7ED070E1C364D6287A6C1D9ED9F
:1045A700080F1D374F6489A9C3DAEE08101E395268
:1045B700678CABC5DBEF0810203B546A8FAEC7DDB5
:1045C700EF0911213E576D92B0C9DEF00912224062
:1045D700597095B3CBE0F10A1324425C7398B5CDBB
:1045E700E1F10A1425455F769BB8CFE2F20B142759
:1045F7004762799EBAD1E3F30B15294A657CA1BDC1
:10460700D3E5F30C172B4D6880A4C0D5E6F40C183E
:104617002D506C83A7C2D7E7F40D192F536F87AAC4
:10462700C5D8E8F50E1A3156738AAEC7DAE9F50E22
:104637001C3359778EB1CADCEAF60F1D365D7B92C3
:10464700B4CCDEECF6101F38617F96B7CFE0EDF7FC
:1046570011213B65839ABBD1E2EEF712233F6987AD
:104667009EBED4E3EFF81425426D8CA2C2D6E5F0C6
:10467700F81527467291A7C5D9E7F1F9172A4A779E
:1046870096ABC9DBE8F2F9192D4F7D9BB0CCDEEA7A
:10469700F3FA1B315483A0B5D0E1ECF4FA1D355978
:1046A70089A6BAD4E3EEF5FB20396090ACBFD7E614
:1046B700EFF6FB233F6797B3C5DBE8F1F7FC274528
:1046C7006F9FB9CADFEBF2F8FC2C4D78A7C0D0E397
:1046D700EDF4F9FC335682B0C8D6E7F0F6FAFD3BA5
:1046E700618FBAD0DCEAF2F7FBFD466F9DC5D8E3D0
:1046F700EEF5F9FCFE5682AED2E1E9F3F7FAFCFEDD
:10470700709CC3DFEAF0F7FAFCFDFE9CC2DDEEF415
:10471700F8FBFCFDFEFFFFFFFFFFFFFFFFFFFFFFB3
:10472700FF120C24273F435B646567687B7C98997D
:104737009BA503031D0384F662B1606A2F1240B084
:0347470040042FFC
:10670900900703E0FFC374649FC313900700F0D39D
:10671900943240037432F0E49006F6F09006F6E005
:10672900FFC3940B4003026852900700E075F00B19
:10673900A424F7F582E5F03444F583E5822FF58248
:10674900E43583F583E493FF900774F09006F9E04C
:10675900FEEFD39E50139007D8E0FFC39480400604
:10676900EF248002683902681B900750E0F9D39E34
:1067790050179007D8E0FFC3948040028060EFF47F
:1067890004FFC3747F9F0268399006F9E0FB7A0021
:10679900900774E0C39BFFE49AFEE9FD7C00125A5E
:1067A9005AE9C39BFDEC9AFC125A6C9007E2EEF091
:1067B900A3EFF09007D8E0FFC394804039EF24801D
:1067C900FFE434FFFE9007E3E02FF09007E2E03E9C
:1067D900F0D3A3E094FF9007E2E094004012900602
:1067E900F6E024A2F582E434D0F58374FFF08050FA
:1067F9009007E3E0803A9007D8E0FFFDC374809DDD
:10680900FDE49400FCC39007E3E09D9007E2E09C5F
:1068190050119006F6E024A2F582E434D0F583E421
:10682900F0801D9007E3E0FEC374809FFFC3EE9FD5
:10683900FF9006F6E024A2F582E434D0F583EFF068
:0A6849009006F6E004F00267252235
:1013F8009007A9E0FEA3E0FFC3EE64809480500C40
:10140800EF2468FFEE34019007E2800B9007A9E013
:10141800FFA3E09007E2CFF0A3EFF09007E2E0FA35
:10142800A3E0FBD3945AEA94005039EAC313FEEBC5
:10143800137802C333CE33CED8F9243FF5827444EF
:101448003EF583125C23900711125C33C3745A9BD8
:10145800FFE49AC313FEEF137802C333CE33CED81A
:10146800F90215639007E2E0FAA3E0FBD394B4EA2B
:101478009400503EC374B49BFFE49AC313FEEF1369
:101488007802C333CE33CED8F9243FF58274443E74
:10149800F583125C23900711125C33EB24A6FFEA54
:1014A80034FFC313FEEF137802C333CE33CED8F91B
:1014B80080509007E2E0FAA3E0FBD3940EEA94018F
:1014C8005051EB244CFFEA34FFC313FEEF137802AC
:1014D800C333CE33CED8F9243FF58274443EF58326
:1014E800125C23125BDE900711125C33C3740E9BEF
:1014F800FF74019AC313FEEF137802C333CE33CEC1
:10150800D8F9243FF58274443EF583125C23125BBC
:10151800DE80549007E2E0FAA3E0FBC374689BFF07
:1015280074019AC313FEEF137802C333CE33CED8B7
:10153800F9243FF58274443EF583125C23125BDE86
:10154800900711125C33EB24F2FFEA34FEC313FE5A
:10155800EF137802C333CE33CED8F9243FF5827423
:10156800443EF583125C2390070B125C3390097993
:10157800E0FFE4FCFDFE900711E0F8A3E0F9A3E02A
:10158800FAA3E0FB125AC1E47BE87A03F9F8127C6B
:1015980053900711125C33900979E0FFE4FCFDFEDB
:1015A80090070BE0F8A3E0F9A3E0FAA3E0FB125AD6
:1015B800C1E47BE87A03F9F8127C5390070B125CBC
:1015C800339043F7125C239007EF125C339043FB90
:1015D800125C239007F3125C339043FF125C239054
:1015E80007F7125C339006F67403F09006F6E0FFF6
:1015F800C39406400302168AEF25E025E02403F58C
:1016080082E43444F583125C23900711E0F8A3E0E8
:10161800F9A3E0FAA3E0FB125AC1C004C005C00652
:10162800C0079006F6E025E025E024F7F582E434CB
:1016380043F583125C2390070BE0F8A3E0F9A3E0DD
:10164800FAA3E0FB125AC1D003D002D001D000C3E4
:10165800EF9BFFEE9AFEED99FDEC98FCE47B64FAB3
:10166800F9F8127C539006F6E025E025E024EFF522
:1016780082E43407F583125C339006F6E004F00246
:1016880015F39006F67406F09006F6E0FFC3940989
:101698004003021726EF25E025E024F7F582E4341D
:1016A80043F583125C2390070BE0F8A3E0F9A3E06D
:1016B800FAA3E0FB125AC1C004C005C006C00790D7
:1016C80006F6E025E025E024EBF582E43443F583D3
:1016D800125C23900711E0F8A3E0F9A3E0FAA3E075
:1016E800FB125AC1D003D002D001D000EF2BFFEE7D
:1016F8003AFEED39FDEC38FCE47B64FAF9F8127C2B
:10170800539006F6E025E025E024EFF582E434075F
:10171800F583125C339006F6E004F0021690E4902C
:1017280006F6F09006F6E0FF75F0038475F003A462
:10173800900774F0EF25E025E024ACF582E4340747
:10174800F583125C3F00000000E49006F7F0900675
:10175800F6E025E025E024ACF582E43407F583C003
:1017680083C082E0F8A3E0F9A3E0FAA3E0FBC0009D
:10177800C001C002C003900774E0FB9006F6E0C306
:101788009BFFA3E0FA75F003A42F75F006A42416B6
:10179800F582E43407F583E0FEA3E0FFEE3395E03D
:1017A800FDFCEB2A25E025E024EFF582E43407F57B
:1017B80083E0F8A3E0F9A3E0FAA3E0FB125AC1D052
:1017C80003D002D001D000EB2FFFEA3EFEE93DFD39
:1017D800E83CFCD082D083125C339006F7E004F03A
:1017E800E0640360030217569006F6E025E025E062
:1017F80024ACF582E43407F583C083C082E0FCA3FF
:10180800E0FDA3E0FEA3E0FFE47BE87A03F9F81229
:101818007C53D082D083125C339006F6E004F0E06B
:101828006409600302172B90442B125C239007B0C5
:10183800E0F8A3E0F9A3E0FAA3E0FB125AC1C00460
:10184800C005C006C00790441F125C239007ACE097
:10185800F8A3E0F9A3E0FAA3E0FB125AC1D003D041
:1018680002D001D000EF2BFFEE3AFEED39FDEC3847
:10187800FCC004C005C006C007904437125C239022
:1018880007B4E0F8A3E0F9A3E0FAA3E0FB125AC119
:10189800D003D002D001D000EF2BFFEE3AFEED3995
:1018A800FDEC38FCE4FB7A02F9F8127C5390077ED1
:1018B800125C3390442F125C239007B0E0F8A3E049
:1018C800F9A3E0FAA3E0FB125AC1C004C005C006A0
:1018D800C007904423125C239007ACE0F8A3E0F91A
:1018E800A3E0FAA3E0FB125AC1D003D002D001D082
:1018F80000EF2BFFEE3AFEED39FDEC38FCC004C0DA
:1019080005C006C00790443B125C239007B4E0F87A
:10191800A3E0F9A3E0FAA3E0FB125AC1D003D00276
:10192800D001D000EF2BFFEE3AFEED39FDEC38FC8C
:10193800E4FB7A02F9F8127C53900782125C339028
:10194800442B125C239007BCE0F8A3E0F9A3E0FA6B
:10195800A3E0FB125AC1C004C005C006C0079044EA
:101968001F125C239007B8E0F8A3E0F9A3E0FAA3FC
:10197800E0FB125AC1D003D002D001D000EF2BFFF8
:10198800EE3AFEED39FDEC38FCC004C005C006C0D7
:1019980007904437125C239007C0E0F8A3E0F9A34E
:1019A800E0FAA3E0FB125AC1D003D002D001D00064
:1019B800EF2BFFEE3AFEED39FDEC38FCE4FB7A0242
:1019C800F9F8127C53EF2480FFEE34FFFEED34FF6C
:1019D800FDEC34FFFC90078A125C3390442F125CB4
:1019E800239007BCE0F8A3E0F9A3E0FAA3E0FB1218
:1019F8005AC1C004C005C006C007904423125C2326
:101A08009007B8E0F8A3E0F9A3E0FAA3E0FB125AC4
:101A1800C1D003D002D001D000EF2BFFEE3AFEED8B
:101A280039FDEC38FCC004C005C006C00790443B33
:101A3800125C239007C0E0F8A3E0F9A3E0FAA3E062
:101A4800FB125AC1D003D002D001D000EF2BFFEE19
:101A58003AFEED39FDEC38FCE4FB7A02F9F8127C29
:101A68005390078E125C3390442B125C239007C866
:101A7800E0F8A3E0F9A3E0FAA3E0FB125AC1C0041E
:101A8800C005C006C00790441F125C239007C4E03D
:101A9800F8A3E0F9A3E0FAA3E0FB125AC1D003D0FF
:101AA80002D001D000EF2BFFEE3AFEED39FDEC3805
:101AB800FCC004C005C006C007904437125C2390E0
:101AC80007CCE0F8A3E0F9A3E0FAA3E0FB125AC1BF
:101AD800D003D002D001D000EF2BFFEE3AFEED3953
:101AE800FDEC38FCE4FB7A02F9F8127C5390079677
:101AF800125C3390442F125C239007C8E0F8A3E0EF
:101B0800F9A3E0FAA3E0FB125AC1C004C005C0065D
:101B1800C007904423125C239007C4E0F8A3E0F9BF
:101B2800A3E0FAA3E0FB125AC1D003D002D001D03F
:101B380000EF2BFFEE3AFEED39FDEC38FCC004C097
:101B480005C006C00790443B125C239007CCE0F820
:101B5800A3E0F9A3E0FAA3E0FB125AC1D003D00234
:101B6800D001D000EF2BFFEE3AFEED39FDEC38FC4A
:101B7800E4FB7A02F9F8127C53EF2480FFEE34FF7D
:101B8800FEED34FFFDEC34FFFC90079A125C33E461
:101B98009006F6F09006F6E0FBC394095058E0FA78
:101BA80025E025E0247AF582E43407F583A3A3E051
:101BB800FEA3E4FFEE5407FEE4FDFC7808125BFD8B
:101BC800EA25E0FA2417F582E434D0F583EFF0EB48
:101BD80025E025E0247AF582E43407F583A3A3A35E
:101BE800E0FF74182AF582E434D0F583EFF090060C
:071BF800F6E004F0809E22DC
:103CF900900706E0B40209E49007E2F0A3F0800F10
:103D09009007D2E0FFA3E09007E2CFF0A3EFF09095
:103D190007E5E0FFB40514E49006FCF0900701F014
:103D2900A3F0900707F0A3F0024046EF6403707711
:103D39009007E3E0C4F8540FC868FF9007E2E0C4B5
:103D490054F048FE7C007D32125A6CC374209FFFE8
:103D59009006FCF0C374209FFB75F014A4FFAEF02D
:103D69009007A7E0FCA3E0FD125A5AEF7807CEC3EB
:103D790013CE13D8F9FF900701EEF0A3EFF0EB751E
:103D8900F00FA4FFAEF09007A5E0FCA3E0FD125AE6
:103D99005AEF7807CEC313CE13D8F9FF900707EE71
:103DA900F0A3EFF00240469007E5E0FB64016003F1
:103DB900023E989007E2E0FEA3E0FF7C007D30120E
:103DC9005A5A7D32125A6CC374409F9006FCF0D344
:103DD9009420405DE013FFF0C374209FFA75F00A48
:103DE900A4FFAEF09007A7E0FCA3E0FD125A5AEF3A
:103DF9007807CEC313CE13D8F9FF900701EEF0A3CD
:103E0900EFF0EA75F00FA4FFE5F0A2E713FEEF1358
:103E1900FF9007A5E0FCA3E0FD125A5AEF7807CE00
:103E2900C313CE13D8F9FF900707EEF0A3EF023FB3
:103E3900C79006FCE0FFC374409FFA75F00AA4FF1F
:103E4900AEF09007A7E0FCA3E0FD125A5AEF7807FD
:103E5900CEC313CE13D8F9FF900701EEF0A3EFF00C
:103E6900EA75F00FA4FFE5F0A2E713FEEF13FF9048
:103E790007A5E0FCA3E0FD125A5AEF7807CEC31359
:103E8900CE13D8F9FF900707EEF0A3EF024040EBFD
:103E990064046003023F2C9007E2E0FEA3E0FF7C8C
:103EA900007D0A125A5A7D32125A6CC3741A9FFF46
:103EB9009006FCF0C3741A9FFB75F016A4FFAEF0D0
:103EC9009007A7E0FCA3E0FD125A5AEF7807CEC38A
:103ED90013CE13D8F9FF900701EEF0A3EFF0EB75BD
:103EE900F012A4FFAEF09007A5E0FCA3E0FD125A82
:103EF9005AEF7807CEC313CE13D8F9FF900707EE10
:103F0900F0A3EFF0900702E02422F0900701E034DB
:103F190000F0900708E02406F0900707E03400F06D
:103F29000240469007E5E0640260030240469007BC
:103F3900E2E0FEA3E0FF7C007D24125A5A7D321292
:103F49005A6CC374349F9006FCF0D394204078E0F7
:103F590013FFF0C3741A9FFB75F00BA4FFAEF0902A
:103F690007A7E0FCA3E0FD125A5AEF7807CEC31366
:103F7900CE13D8F9FF900701EEF0A3EFF0EB75F03F
:103F890009A4FFAEF09007A5E0FCA3E0FD125A5A80
:103F9900EF7807CEC313CE13D8F9FF900707EEF0D9
:103FA900A3EFF0900702E02411F0900701E034003C
:103FB900F0900708E02403F0900707E03400F09040
:103FC900D02C7422F080769006FCE0FFC374349FF5
:103FD900FB75F00BA4FFAEF09007A7E0FCA3E0FD92
:103FE900125A5AEF7807CEC313CE13D8F9FF9007A8
:103FF90001EEF0A3EFF0EB75F009A4FFAEF0900726
:10400900A5E0FCA3E0FD125A5AEF7807CEC313CE00
:1040190013D8F9FF900707EEF0A3EFF0900702E03D
:104029002422F0900701E03400F0900708E024060C
:10403900F0900707E03400F0E490D02CF0900702EC
:10404900E004F07006900701E004F0900701E090A9
:10405900D294F0900702E090D295F0900707E09093
:10406900D296F0900708E090D297F09006FCE0FF16
:1040790070028003EF248090D2A0F0A3F090D0DCEE
:044089007402F022AB
:105E99009007E5E0FFB4052D90D0C07404F090D2CE
:105EA900907402F0A37480F0A37401F0A374E0F07D
:105EB90090D2987402F0A37480F0A37401F0A374D3
:105EC900E0F0025F83EFB4032A90D0C07402F0902F
:105ED900D290F0A37480F0A37401F0A374E0F09061
:105EE900D2987401F0A37440F0E4A3F0A374F0F025
:105EF900025F83EFB40129E490D0C0F090D290748E
:105F090002F0A37480F0A37401F0A374E0F0E490AC
:105F1900D298F0A374A0F0E4A3F0A37478F0805AA7
:105F2900EFB4042B90D0C07403F090D29014F0A376
:105F3900743CF0A37401F0A374D4F090D298740166
:105F4900F0A37460F0A37401F0A37420F0802BEF28
:105F5900B4022790D0C07401F090D29004F0A374D9
:105F69003CF0A37401F0A374D4F0E490D298F0A3A8
:105F790074B0F0E4A3F0A37490F0E490D02CF09006
:105F89000706E06401600302602590097BF0A374B1
:105F990002F090097614F090D0C4F0900976E0757B
:105FA900F00CA42481F582E43409F583E0FFA3E031
:105FB900900904CFF0A3EFF0E090D0C3F09007E58B
:105FC900E0900981B4052BE4F0A3743CF090D04B28
:105FD9007402F0A37408F0A3740CF0A3740EF0A378
:105FE9007410F090D0C17494F090D0C6740EF00281
:105FF900607BE4F0A37432F090D04B7409F0A37481
:106009000EF0A37414F0A3741BF0A374A0F090D045
:10601900C174A3F090D0C6741BF08056E490097641
:10602900F090D0C4F09007E5E0FFB4050B90097B30
:10603900E4F0A3742EF0803AEFB4040B90097BE4EA
:10604900F0A3740FF0802BEFB4030B90097BE4F0FD
:10605900A3740BF0801CEFB4020B90097BE4F0A34E
:106069007404F0800DEFB4010990097BE4F0A37486
:0960790003F090D0DC7402F02267
:1078B0009009DDE09007E5F09009DEE0900706F022
:1078C0009009E0E0FF600490094FF090D0BC740193
:1078D000F0E50B30E3097D037F0412820080031280
:1078E0005E99E50B30E4097D047F04128200800379
:1078F000123CF9E50D30E6097D067F061282008014
:107900000312394BE50B30E009E4FD7F04128200DD
:0C791000800312559290D0BC7401F0224C
:10608200300305126709C203300613E50A30E70937
:106092007D077F0312820080031213F8C2063005C7
:1060A200129007E6E090D0B5F090090DE090D0B6DE
:1060B200F0C2053009129007D9E090D227F090077C
:1060C200A3E090D228F0C2099006FBE0C3940240FC
:1060D2000B90D2317480F0E49006FBF030071990F7
:1060E20007EBE0FFC454F0FEEF4E90D07BF0900738
:1060F200EBE090D07CF0C2073004229007D0E09011
:10610200D24CF09007D6E090D24DF09006FAE09093
:10611200D24EF09007EDE090D24FF0C20430027BF5
:106122009007ECE0FFC394804003EF80049007ECFB
:10613200E02480900774F0900774E0FF9006FEE080
:10614200FDEF2DFFE433FE9007E2F0A3EFF0C394DE
:106152007FEE94014008900774747FF080239007CB
:10616200E2E0FEA3E0D39480EE940050089007741E
:106172007480F0800CC3EE94019007E3E090077402
:10618200F0900774E090D207F09007E9E090D2080F
:10619200F09007EAE090D209F0C202300A6D90074F
:1061A200A1E0FEA3E0FFD39488EE9413401BEF24FA
:1061B20078FFEE34ECFE7C007D96125A6CC3E49FAD
:1061C20090D208F0A3EFF080309007A1E0FEA3E0A8
:1061D200FFC374889FFB74139EFA7C007D2CAF036F
:1061E200FE125A6C90D208EFF07C007DDCAF03AE59
:1061F20002125A6CC3E49FA3F09007E9E090D20820
:10620200F09007EAE090D209F0C20A30083390D049
:10621200BC7401F09007DAE033333354F8FF90078F
:10622200D1E025E025E04F90C221F07F647E00128C
:106232007FD090C2117401F07F647E00127FD0C2C1
:086242000890D0DC7401F02289
:105326009009BBE06003025591E54F7004E54E64B9
:10533600036003025591E54B6401454A600302553B
:10534600919009BB04F0E54D854CF0125C705394C6
:10535600800053B8830053D8840053F88600541E47
:10536600890054558F0054E39E0054EE9F00551358
:10537600A000551CA1005541A500554EA600555B41
:10538600A700556AA8005573AA000000558C90091D
:10539600DFE090D02EF09009DDE0900914F0E50DE5
:1053A60030E6097D067F06128200800312394BD251
:1053B6000B229009DEE0FE9009DDE07C002400FF70
:1053C600EC3E9007D2F0A3EFF0E50B30E447803EC9
:1053D60080439009DEE0FE9009DDE07C002400FFBA
:1053E600EC3E9007A7F0A3EFF0E50B30E402801E39
:1053F60080239009DEE0FE9009DDE07C002400FFBA
:10540600EC3E9007A5F0A3EFF0E50B30E4077D0432
:105416007F04025586023CF99009DFE09007A4F06C
:1054260090D02EE030E0149007A4E0600690070AC2
:10543600E08001E490092FF0D20B229007A4E060EF
:105446000690070AE08001E4900979F0D2062290DE
:1054560009DFE090D03860057403F080037402F031
:105466009009DDE09006FFF09007A4E0605B9006EF
:10547600FFE0FF700F9007ECF09007E97420F0E46E
:10548600A3F08050EFB4010FE49007ECF09007E929
:10549600F0A37420F0803DEFB4020CE49007ECF02A
:1054A6009007E97420802AEFB4031A9007D7E0909A
:1054B60007ECF09007D4E09007E9F09007D5E0906C
:1054C60007EAF0800FD20A800BE49007ECF0900711
:1054D600E9F0A3F0300A03025591D202229009DDC9
:1054E600E09007D1F0D20822900706E0B4011390AD
:1054F60009DDE070047F0180027F009007DAEFF09B
:1055060080089009DDE09007DAF0D208229009DDE4
:10551600E09007E7F0229009DDE070047F01800249
:105526007F0090091DEFF0E50D30E6097D067F0648
:10553600128200800312394BD20B229009DDE090D3
:1055460007D7F09007EC80189009DDE09007D4F0BB
:105556009007E9800B9009DDE09007D5F09007EA07
:10556600F0D202229009DDE090D236F0229009DDD9
:10557600E090094FF0D20BE50D30E6077D067F0679
:0C55860002820002394BE49009BBF022C5
:104A82009009BB7401F0E54F7004E54E64036003C6
:104A9200024CF5E54B6401454A6003024C74E54D56
:104AA200854CF0125C704AD001004AE902004AF6D5
:104AB20003004B2005004B4506004B8707004BCFF8
:104AC20008004BFB09004C310A0000004C719009B0
:104AD200DDE0FFD394054003024D749007E4EFF04C
:104AE20090091AF0024D799009DDE09006FEF0D2AD
:104AF20002024D799009DDE0FFD394324003024D6A
:104B0200749007ABEFF090D02EE09007AB30E00747
:104B1200E090093B024C21E09006F9024C2B9009EF
:104B2200DDE0FFD394024003024D749007A0EFF042
:104B3200900950BF01057432F08003743CF0D20B2F
:104B4200024D799009DEE0FE9009DDE07C00240050
:104B5200FFEC3EFE9007E2F0A3EFF0D394B4EE94A4
:104B620000400EE0944C9007E2E094FF5003024DA7
:104B7200749007E2E0FFA3E09007A9CFF0A3EFF063
:104B8200D206024D799009DDE0FFD394C8400302BA
:104B92004D74900709E4F0A3EFF090D02EE030E0DE
:104BA200169007A4E0600690070AE08001E49009ED
:104BB2002FF0D20B024D799007A4E0600690070A0D
:104BC200E08001E4900979F0D206024D799009DD86
:104BD200E0FFD3940A4003024D74900775EFF09002
:104BE200D02EE090077530E006E09009318030E089
:104BF20090090DF0D205024D799009DDE0FFC394D2
:104C0200144006EFD394644003024D749007DBEF27
:104C1200F090D02EE09007DB30E00AE0900939F006
:104C2200D20B024D79E0900703F0D203024D799046
:104C320009DEE0FE9009DDE07C002400FFEC3EFE90
:104C42009007E2F0A3EFF0D39420EE941C50109062
:104C520007E2E0FEA3E0FFC394F0EE940A500302E1
:104C62004D749007A1EEF0A3EFF0D20A024D790243
:104C72004D74E54D854CF0125C704CA401004CA9BA
:104C820002004CAE03004CB305004CBE06004CCCF7
:104C920007004CD108004CD609004CE40A00000081
:104CA2004CF29007E480309006FE802B9007AB8098
:104CB200269007A0E09009DDF0024D799007AAE066
:104CC2009009DDF09007A9024D6C90070A800890C8
:104CD200077580039007DBE09009DDF0E4A3F002A2
:104CE2004D799007A2E09009DDF09007A1E0807C69
:104CF200024D74E54F7004E54E6401707AE54B6431
:104D020001454A7050E54D704AE54C24F5704490D7
:104D120009DEE0FE9009DDE07C002400FFEC3EFEAF
:104D22009007E2F0A3EFF0D39432EE9400400280B9
:104D3200419007E2E0FFA3E09007D2CFF0A3EFF0AB
:104D4200E50B30E4097D047F041282008029123CC5
:104D5200F98024801DE54D7019E54C24F5701390FF
:104D620007D3E09009DDF09007D2E0A39009DEF0CE
:104D72008005E49009BBF0E50A30E2077D027F037B
:074D820002820012532622F9
:107E920090090CE090D2B4F0900976E090D2B5F05F
:107EA2009008EDE090D2B6F0900978E090D2B7F069
:017EB20022AD
:1079DC0090D2EBE064556050E52A30E74BE50C3073
:1079EC00E2097D027F051282008003127E92E50C73
:1079FC0030E7097D077F05128200800312507AE57B
:107A0C000C30E6097D067F051282008003120AE025
:107A1C00E50C30E4097D047F0512820080031260BE
:097A2C008290D007E0547FF022A3
:105592009009B57402F0900A84F0900976E0FF75E4
:1055A200F00CA4247BF582E43409F583A3E090098E
:1055B200AEF0EF75F00CA4247DF582E43409F58396
:1055C200E0FFA3E09009B6CFF0A3EFF0900950E01E
:1055D200FFE4F8F9FAAB07900776E0FCA3E0FDA33D
:1055E200E0FEA3E0FF125B4CC004C005C006C0078A
:1055F2009009AEE0FFE4F8F9FAAB07D007D006D085
:1056020005D004125B4C900817125C339008EDE051
:10561200FEA3E0FFE4FCFD900817E0F8A3E0F9A385
:10562200E0FAA3E0FB125AC1C004C005C006C007DD
:105632009009B6E0FEA3E0FFE4F8F9AA06AB07D0B2
:1056420007D006D005D004125B4CEF24FFFFE43EE6
:10565200FEE43DFDE43CFC7808125BFD900704EE9D
:10566200F0A3EFF0900953E02401FD900952E034D9
:1056720000FC900951E0F9FBC3ED9BFDEC9400FCAA
:10568200C3EF9DEE9C502BA3E0FEA3E0FF9008E940
:10569200EEF0A3EFF02401FFE43EFE900704E0FCED
:1056A200A3E0FDC3EF9DFFEE9C90090AF0A3EFF08B
:1056B2008024E9FB7A00900705E02BFF900704E0C5
:1056C2003ACF24FFCF34FF9008E9F0A3EFF090091E
:1056D2000AEAF0A3EBF09009B1E0FEA3E0FFC39069
:1056E20009B7E09FFF9009B6E09E90079EF0A3EFF6
:1056F200F0900A83E090C206F07F647E00127FD0B1
:10570200900A7CE090C207F07F647E00127FD09006
:105712000A83E090C208F07F647E00127FD0900A74
:1057220085E090C209F07F647E00127FD09009AEBE
:10573200E090D0A0F090C202F07F647E00127FD091
:1057420090079FE090C203F07F647E00127FD090AA
:10575200079EE0A390C280F07F647E00127FD0900B
:1057620008EAE090C204F07F647E00127FD09008C5
:10577200E9E0A390C205F07F647E00127FD0900919
:105782000BE090C20EF07F647E00127FD090090A77
:10579200E0A390C20FF07F647E00127FD090096375
:1057A200E090C210F07F647E00127FD090095EE02C
:1057B20090C212F07F647E00127FD0900960E09068
:1057C200C242F07F647E00127FD0900961E090C2F5
:1057D20058F07F647E00127FD090C2117401F07F76
:1057E200647E00127FD09009AEE0B4020790D0C56B
:0A57F2007408F022E490D0C5F02204
:1057FC0090D00A74FEF090D00F7402F0A37440F0B5
:10580C00A37401F0A374B0F0A37402F0E4A3F0A3AA
:10581C0004F0A37480F090D02D7401F0A3F090D01C
:10582C00307428F0A37402F0A3740AF0A37416F079
:10583C0090D0387403F090D03A7410F0A374FFF049
:10584C00A37428F0A374AAF0A3F090D040741AF0BB
:10585C00A37418F0A37414F0A37480F0A37410F064
:10586C0090D04674A0F0A37480F0A37460F0A3747D
:10587C0040F0A37420F0E490D056F0A304F0E4A31D
:10588C00F0A304F0A37405F0A37408F0A3740EF055
:10589C00A37414F0A37420F0A37410F0A374A8F0F4
:1058AC00A374D6F0A374ADF0A374F1F0A374FFF05D
:1058BC00A37414F090D07874FFF0A3F0A3F0A3F0CD
:1058CC00A3740FF0A37401F0A3F0A37410F0A3F071
:1058DC00A3F0A3F0A3F0A3F0A3F0A3F0A3F0A3F024
:1058EC00A3F0A3F0A3F0A3F0A3F0A3F0A37444F0EF
:1058FC00A37401F0A374E1F0E4A3F0A3F090D095AD
:10590C00F0A3F090D0987408F090D09A7406F0E45C
:10591C0090D09CF090D09F7406F090D0AD7401F0B4
:10592C009007E6E090D0B5F0900775E090D0B6F017
:10593C00A37402F0A37481F0A37401F0A374E0F0DB
:10594C0090D0DC7403F0E490D207F0A3F0A3F0A3A2
:10595C0004F090D217F0A37415F0A37427F0A3747D
:10596C0038F0A37449F0A37469F0A37480F0A374A5
:10597C0089F0A374A7F0A374C5F0A374E2F0A37428
:10598C003FF0A374A4F0A374F0F0A37496F0900706
:10599C00D9E090D227F09007A3E090D228F090D2D3
:1059AC002A74F4F090D22C7420F0A3F0A37402F0BB
:1059BC00A3F090D23314F0A374F0F0E490D236F04C
:1059CC00A37404F0A37428F0A374E0F0A37408F09B
:1059DC00A37460F0E490D244F090D24B741FF0901A
:1059EC0007D0E090D24CF09007D6E090D24DF090DA
:1059FC0006FAE090D24EF09007EDE090D24FF0A373
:105A0C007464F0A37407F0A37451F090D25974012C
:105A1C00F0A37411F090D0DC7401F0E49006F6F071
:105A2C009006F6E0FF90473993FEEF9047289324B9
:105A3C0000F582E434C2F583EEF07F647E00127FC1
:0E5A4C00D09006F6E004F0E0C3941140D3229F
:1031A900900A1DE09007DBF0FB900A1EE0F99007FA
:1031B900ABF0900A1FE09007A0F0900A20E090067B
:1031C900FEF0900A21E0FEA3E0FDEDFF9007A9EED5
:1031D900F0A3EFF0900A23E0FF900709E4F0A3EFD2
:1031E900F0900A24E0900775F0FA900A25E0FEA312
:1031F900E0FDEDFF9007A1EEF0A3EFF0900A27E0C4
:10320900900715F0900A28E0FEA3E0FDEDFF900776
:103219000FEEF0A3EFF0900A2AE09006FDF0900A75
:103229002CE07E007810C333CE33CED8F9FDAC063E
:10323900900A2BE07E007818C333CE33CED8F9FF3D
:10324900EE4CFCEF4DFD900A2DE04CFEEDFFA3E0A6
:10325900FDEF4DFFE4FCFD900813125C33900A2F3B
:10326900E09007E8F0900A30E0FEA3E0FDEDFF9062
:1032790007D2EEF0A3EFF0900A32E0FF9007E4F0F6
:103289009009147487F0A37405F0A3740AF0A37469
:1032990008F0A3F0A3F0A3EFF0A37404F0A3740A59
:1032A900F0E4A3F0A37402F0A374FAF0900926E401
:1032B900F0A37413F0A3E4F0A37440F0A3E4F0A323
:1032C90074C0F0900920E4F0A37402F0A3E4F0A321
:1032D9007405F0A3E4F0A37414F090092C7410F0B1
:1032E900A37414F0A37410F090070AE090092FF06A
:1032F900A37450F0A3EAF0A37407F0A304F0A37435
:103309000CF0A3740FF0A3740AF0A37414F0A3745F
:103319000FF0A3EBF0A3745AF0A3E9F0E4A3F09043
:1033290006FEE090093DF0A3748AF0A3740FF0E45F
:10333900A3F0A3740FF0A3741EF0A37414F0A37484
:103349001EF0A37446F0A37482F0A37414F0A3745E
:1033590020F0E4A3F0A37414F0A37410F0A3740A8A
:10336900F0E4A3F0A37405F0A3741EF0A3743CF079
:10337900A37402F0A314F0A374F3F0A37405F0A3EB
:10338900746EF0A37403F0A3740CF0A37410F0A38B
:103399007408F0900A527401F0A3740AF0A37480BF
:1033A900F0A3F0A37404F0A37408F0A37402F0A3CB
:1033B900740FF0A37411F0A3F0A37401F0A3E4F067
:1033C900A37402F0A3E4F0A304F0A3E4F0A374024D
:1033D900F0A3E4F0A37407F0A374D0F09007167477
:1033E90005F0A37445F090071C74FEF0A37414F063
:1033F900900722E4F0A3748FF090072874FEF0A3DD
:1034090074EFF090072E7406F0A37434F09007342B
:1034190074FEF0A374C5F090073A74FFF0A3749793
:10342900F090074074FDF0A37445F09007467407C7
:10343900F0A3740CF09007187405F0A37445F0908C
:10344900071E74FEF0A37414F0900724E4F0A3742B
:103459008FF090072A74FEF0A374EFF09007307490
:1034690006F0A37434F090073674FEF0A374C5F027
:1034790090073C74FFF0A37497F090074274FDF035
:10348900A37445F09007487407F0A3740CF09007F3
:103499001A7405F0A37445F090072074FEF0A37424
:1034A90014F0900726E4F0A3748FF090072C74FEB3
:1034B900F0A374EFF09007327406F0A37434F0901F
:1034C900073874FEF0A374C5F090073E74FFF0A3AB
